:100000000002040000000000FA020000FA020000F2
:10001000FA020000FA020000FA020000FA020000F0
:10002000FA020000FA020000FA020000FA020000E0
:10003000FA020000FA020000FA020000FA020000D0
:10004000FA020000FA020000FA020000FA020000C0
:100400002F0021000EFF2D000E01880000000000CB
:10041000000020000000E000020032000001200087
:100420002002880014000700740007000000E000AC
:1004300003003A00003820000100200002003700CD
:100440000000200001002000810F70000100320038
:100450000F000700000020000000E0000200320052
:100460000000020000000000000302000000000085
:100470000040DA000000FE00200020000000E00044
:1004800002003200100020009001880000000600E9
:10049000A1028800800478000000EB001F003700F4
:1004A000E284440054A0B4009905BA00E2844400F8
:1004B00054A0B4009906BA00E284440054A0B400E9
:1004C0000006EB00476FDE00FD07B200AE018800BA
:1004D000636CE10003003A000AD801000000EB0061
:1004E0000E003700606CE10008003A00004DEB00A0
:1004F0000A05E800020039003420EC000AF0A000F0
:100500008B05E900F9FF3E00040037006168E10057
:10051000010032000086EB000B00070019C7BA008B
:100520000E04E0001905BA0003003A000A00E000DA
:10053000DBFF3A0000000600FE07B200AE028800B2
:100540008A047800F5FF37000CD0A300E20F4D00BD
:100550001C003B0089027800354DBA000A05E8000E
:10056000020039003420EC000AF0A0008B05E900FD
:100570000F003200254DBA000A05E80002003900DC
:100580003420EC000AF0A0008B05E90008003200DE
:100590000C00E0000600320015CDBA000A05E800A4
:1005A000020039003420EC000AF0A0008B05E900BD
:1005B0008984E80054A0B4000B00E000E2FF3A0098
:1005C000000006009902BA00055D78008B05E9007D
:1005D000F7FF3200C82ADE00055D78008B05E900D0
:1005E000F3FF32000C00E000F1FF320019DDBA0029
:1005F000EEFF37000040DA000000FE0000000500BA
:100600000000FA006E2EEF00707380007072880098
:1006100070728000F0718800F07180007071880045
:1006200070718000F0708800F07080007070880039
:10063000000EA900040EA900410EA800117280004E
:1006400000102000008060000000E00019003A0067
:1006500000D42000310020001B0007001172800030
:1006600000102000008060000000E00012003A004E
:1006700000D0BF000004E0000F003A0010C0B3003B
:1006800000F0B700207080000040780061406000FA
:100690000004A200614060000080FB006100600077
:1006A000217080000100A10001007000207088000E
:1006B000010037000070EF000088230011002000C7
:1006C00001000700DDFF3700F03FB1000180B100FD
:1006D00006003500EE03090000000000403FB100B5
:1006E0000180B100FBFF3D001000B000203FB000D2
:1006F0000200350000800900000000000000060034
:100700000010000002000000800000000000000057
:00000001FF
